{
  "_format": "hh3-artifact-1",
  "contractName": "BondSmartAccount",
  "sourceName": "contracts/account/BondSmartAccount.sol",
  "abi": [
    {
      "inputs": [
        {
          "internalType": "contract IEntryPoint",
          "name": "_entryPoint",
          "type": "address"
        },
        {
          "internalType": "contract IBondProtocol",
          "name": "_protocol",
          "type": "address"
        }
      ],
      "stateMutability": "nonpayable",
      "type": "constructor"
    },
    {
      "inputs": [
        {
          "internalType": "address",
          "name": "target",
          "type": "address"
        }
      ],
      "name": "AddressEmptyCode",
      "type": "error"
    },
    {
      "inputs": [],
      "name": "ECDSAInvalidSignature",
      "type": "error"
    },
    {
      "inputs": [
        {
          "internalType": "uint256",
          "name": "length",
          "type": "uint256"
        }
      ],
      "name": "ECDSAInvalidSignatureLength",
      "type": "error"
    },
    {
      "inputs": [
        {
          "internalType": "bytes32",
          "name": "s",
          "type": "bytes32"
        }
      ],
      "name": "ECDSAInvalidSignatureS",
      "type": "error"
    },
    {
      "inputs": [
        {
          "internalType": "address",
          "name": "implementation",
          "type": "address"
        }
      ],
      "name": "ERC1967InvalidImplementation",
      "type": "error"
    },
    {
      "inputs": [],
      "name": "ERC1967NonPayable",
      "type": "error"
    },
    {
      "inputs": [],
      "name": "FailedCall",
      "type": "error"
    },
    {
      "inputs": [],
      "name": "InvalidInitialization",
      "type": "error"
    },
    {
      "inputs": [],
      "name": "NotInitializing",
      "type": "error"
    },
    {
      "inputs": [],
      "name": "UUPSUnauthorizedCallContext",
      "type": "error"
    },
    {
      "inputs": [
        {
          "internalType": "bytes32",
          "name": "slot",
          "type": "bytes32"
        }
      ],
      "name": "UUPSUnsupportedProxiableUUID",
      "type": "error"
    },
    {
      "anonymous": false,
      "inputs": [
        {
          "indexed": true,
          "internalType": "contract IEntryPoint",
          "name": "entryPoint",
          "type": "address"
        },
        {
          "indexed": true,
          "internalType": "address",
          "name": "owner",
          "type": "address"
        }
      ],
      "name": "BondAccountInitialized",
      "type": "event"
    },
    {
      "anonymous": false,
      "inputs": [
        {
          "indexed": false,
          "internalType": "uint64",
          "name": "version",
          "type": "uint64"
        }
      ],
      "name": "Initialized",
      "type": "event"
    },
    {
      "anonymous": false,
      "inputs": [
        {
          "indexed": true,
          "internalType": "bytes32",
          "name": "intentId",
          "type": "bytes32"
        },
        {
          "indexed": true,
          "internalType": "address",
          "name": "executor",
          "type": "address"
        }
      ],
      "name": "IntentExecuted",
      "type": "event"
    },
    {
      "anonymous": false,
      "inputs": [
        {
          "indexed": false,
          "internalType": "address",
          "name": "sender",
          "type": "address"
        },
        {
          "indexed": false,
          "internalType": "uint256",
          "name": "amount",
          "type": "uint256"
        }
      ],
      "name": "Received",
      "type": "event"
    },
    {
      "anonymous": false,
      "inputs": [
        {
          "indexed": true,
          "internalType": "address",
          "name": "implementation",
          "type": "address"
        }
      ],
      "name": "Upgraded",
      "type": "event"
    },
    {
      "inputs": [],
      "name": "UPGRADE_INTERFACE_VERSION",
      "outputs": [
        {
          "internalType": "string",
          "name": "",
          "type": "string"
        }
      ],
      "stateMutability": "view",
      "type": "function"
    },
    {
      "inputs": [
        {
          "internalType": "bytes",
          "name": "data",
          "type": "bytes"
        }
      ],
      "name": "_decodeExecuteIntentCall",
      "outputs": [
        {
          "internalType": "bytes32",
          "name": "",
          "type": "bytes32"
        }
      ],
      "stateMutability": "pure",
      "type": "function"
    },
    {
      "inputs": [],
      "name": "entryPoint",
      "outputs": [
        {
          "internalType": "contract IEntryPoint",
          "name": "",
          "type": "address"
        }
      ],
      "stateMutability": "view",
      "type": "function"
    },
    {
      "inputs": [
        {
          "internalType": "address",
          "name": "target",
          "type": "address"
        },
        {
          "internalType": "uint256",
          "name": "value",
          "type": "uint256"
        },
        {
          "internalType": "bytes",
          "name": "data",
          "type": "bytes"
        }
      ],
      "name": "execute",
      "outputs": [
        {
          "internalType": "bytes",
          "name": "",
          "type": "bytes"
        }
      ],
      "stateMutability": "nonpayable",
      "type": "function"
    },
    {
      "inputs": [
        {
          "internalType": "address[]",
          "name": "targets",
          "type": "address[]"
        },
        {
          "internalType": "uint256[]",
          "name": "values",
          "type": "uint256[]"
        },
        {
          "internalType": "bytes[]",
          "name": "datas",
          "type": "bytes[]"
        }
      ],
      "name": "executeBatch",
      "outputs": [
        {
          "internalType": "bytes[]",
          "name": "results",
          "type": "bytes[]"
        }
      ],
      "stateMutability": "nonpayable",
      "type": "function"
    },
    {
      "inputs": [
        {
          "internalType": "bytes",
          "name": "_intentData",
          "type": "bytes"
        },
        {
          "internalType": "address",
          "name": "_executor",
          "type": "address"
        }
      ],
      "name": "executeIntent",
      "outputs": [
        {
          "internalType": "bytes[]",
          "name": "results",
          "type": "bytes[]"
        }
      ],
      "stateMutability": "nonpayable",
      "type": "function"
    },
    {
      "inputs": [],
      "name": "getEntryPoint",
      "outputs": [
        {
          "internalType": "contract IEntryPoint",
          "name": "",
          "type": "address"
        }
      ],
      "stateMutability": "view",
      "type": "function"
    },
    {
      "inputs": [
        {
          "internalType": "address",
          "name": "anOwner",
          "type": "address"
        }
      ],
      "name": "initialize",
      "outputs": [],
      "stateMutability": "nonpayable",
      "type": "function"
    },
    {
      "inputs": [
        {
          "internalType": "address",
          "name": "",
          "type": "address"
        },
        {
          "internalType": "address",
          "name": "",
          "type": "address"
        },
        {
          "internalType": "uint256[]",
          "name": "",
          "type": "uint256[]"
        },
        {
          "internalType": "uint256[]",
          "name": "",
          "type": "uint256[]"
        },
        {
          "internalType": "bytes",
          "name": "",
          "type": "bytes"
        }
      ],
      "name": "onERC1155BatchReceived",
      "outputs": [
        {
          "internalType": "bytes4",
          "name": "",
          "type": "bytes4"
        }
      ],
      "stateMutability": "pure",
      "type": "function"
    },
    {
      "inputs": [
        {
          "internalType": "address",
          "name": "",
          "type": "address"
        },
        {
          "internalType": "address",
          "name": "",
          "type": "address"
        },
        {
          "internalType": "uint256",
          "name": "",
          "type": "uint256"
        },
        {
          "internalType": "uint256",
          "name": "",
          "type": "uint256"
        },
        {
          "internalType": "bytes",
          "name": "",
          "type": "bytes"
        }
      ],
      "name": "onERC1155Received",
      "outputs": [
        {
          "internalType": "bytes4",
          "name": "",
          "type": "bytes4"
        }
      ],
      "stateMutability": "pure",
      "type": "function"
    },
    {
      "inputs": [
        {
          "internalType": "address",
          "name": "",
          "type": "address"
        },
        {
          "internalType": "address",
          "name": "",
          "type": "address"
        },
        {
          "internalType": "uint256",
          "name": "",
          "type": "uint256"
        },
        {
          "internalType": "bytes",
          "name": "",
          "type": "bytes"
        }
      ],
      "name": "onERC721Received",
      "outputs": [
        {
          "internalType": "bytes4",
          "name": "",
          "type": "bytes4"
        }
      ],
      "stateMutability": "pure",
      "type": "function"
    },
    {
      "inputs": [],
      "name": "owner",
      "outputs": [
        {
          "internalType": "address",
          "name": "",
          "type": "address"
        }
      ],
      "stateMutability": "view",
      "type": "function"
    },
    {
      "inputs": [],
      "name": "protocol",
      "outputs": [
        {
          "internalType": "contract IBondProtocol",
          "name": "",
          "type": "address"
        }
      ],
      "stateMutability": "view",
      "type": "function"
    },
    {
      "inputs": [],
      "name": "proxiableUUID",
      "outputs": [
        {
          "internalType": "bytes32",
          "name": "",
          "type": "bytes32"
        }
      ],
      "stateMutability": "view",
      "type": "function"
    },
    {
      "inputs": [
        {
          "internalType": "bytes4",
          "name": "interfaceId",
          "type": "bytes4"
        }
      ],
      "name": "supportsInterface",
      "outputs": [
        {
          "internalType": "bool",
          "name": "",
          "type": "bool"
        }
      ],
      "stateMutability": "pure",
      "type": "function"
    },
    {
      "inputs": [
        {
          "internalType": "address",
          "name": "newImplementation",
          "type": "address"
        },
        {
          "internalType": "bytes",
          "name": "data",
          "type": "bytes"
        }
      ],
      "name": "upgradeToAndCall",
      "outputs": [],
      "stateMutability": "payable",
      "type": "function"
    },
    {
      "inputs": [
        {
          "components": [
            {
              "internalType": "address",
              "name": "sender",
              "type": "address"
            },
            {
              "internalType": "uint256",
              "name": "nonce",
              "type": "uint256"
            },
            {
              "internalType": "bytes",
              "name": "initCode",
              "type": "bytes"
            },
            {
              "internalType": "bytes",
              "name": "callData",
              "type": "bytes"
            },
            {
              "internalType": "uint256",
              "name": "callGasLimit",
              "type": "uint256"
            },
            {
              "internalType": "uint256",
              "name": "verificationGasLimit",
              "type": "uint256"
            },
            {
              "internalType": "uint256",
              "name": "preVerificationGas",
              "type": "uint256"
            },
            {
              "internalType": "uint256",
              "name": "maxFeePerGas",
              "type": "uint256"
            },
            {
              "internalType": "uint256",
              "name": "maxPriorityFeePerGas",
              "type": "uint256"
            },
            {
              "internalType": "bytes",
              "name": "paymasterAndData",
              "type": "bytes"
            },
            {
              "internalType": "bytes",
              "name": "signature",
              "type": "bytes"
            }
          ],
          "internalType": "struct UserOperation06",
          "name": "userOp",
          "type": "tuple"
        },
        {
          "internalType": "bytes32",
          "name": "userOpHash",
          "type": "bytes32"
        },
        {
          "internalType": "uint256",
          "name": "",
          "type": "uint256"
        }
      ],
      "name": "validateUserOp",
      "outputs": [
        {
          "internalType": "uint256",
          "name": "validationData",
          "type": "uint256"
        }
      ],
      "stateMutability": "view",
      "type": "function"
    },
    {
      "stateMutability": "payable",
      "type": "receive"
    }
  ],
  "bytecode": "0x60c06040523073ffffffffffffffffffffffffffffffffffffffff1660809073ffffffffffffffffffffffffffffffffffffffff16815250348015610042575f5ffd5b506040516147a13803806147a1833981810160405281019061006491906102d7565b8173ffffffffffffffffffffffffffffffffffffffff1660a08173ffffffffffffffffffffffffffffffffffffffff16815250508060015f6101000a81548173ffffffffffffffffffffffffffffffffffffffff021916908373ffffffffffffffffffffffffffffffffffffffff1602179055506100e66100ed60201b60201c565b5050610350565b5f6100fc6101eb60201b60201c565b9050805f0160089054906101000a900460ff1615610146576040517ff92ee8a900000000000000000000000000000000000000000000000000000000815260040160405180910390fd5b67ffffffffffffffff8016815f015f9054906101000a900467ffffffffffffffff1667ffffffffffffffff16146101e85767ffffffffffffffff815f015f6101000a81548167ffffffffffffffff021916908367ffffffffffffffff1602179055507fc7f505b2f371ae2175ee4913f4499e1f2633a7b5936321eed1cdaeb6115181d267ffffffffffffffff6040516101df9190610337565b60405180910390a15b50565b5f5f6101fb61020460201b60201c565b90508091505090565b5f7ff0c57e16840df040f15088dc2f81fe391c3923bec73e23a9662efc9c229c6a005f1b905090565b5f5ffd5b5f73ffffffffffffffffffffffffffffffffffffffff82169050919050565b5f61025a82610231565b9050919050565b5f61026b82610250565b9050919050565b61027b81610261565b8114610285575f5ffd5b50565b5f8151905061029681610272565b92915050565b5f6102a682610250565b9050919050565b6102b68161029c565b81146102c0575f5ffd5b50565b5f815190506102d1816102ad565b92915050565b5f5f604083850312156102ed576102ec61022d565b5b5f6102fa85828601610288565b925050602061030b858286016102c3565b9150509250929050565b5f67ffffffffffffffff82169050919050565b61033181610315565b82525050565b5f60208201905061034a5f830184610328565b92915050565b60805160a0516143f86103a95f395f81816105510152818161062e0152818161065601528181610979015281816116350152818161165b0152611fc701525f8181611bec01528181611c410152611eb701526143f85ff3fe608060405260043610610101575f3560e01c80636d1b47cd11610094578063b0d691fe11610063578063b0d691fe1461039b578063b61d27f6146103c5578063bc197c8114610401578063c4d66de81461043d578063f23a6e611461046557610141565b80636d1b47cd146102e15780638ce744261461031d5780638da5cb5b14610347578063ad3cb1cc1461037157610141565b806347e1da2a116100d057806347e1da2a146102235780634f1ef2861461025f57806352c64e591461027b57806352d1902d146102b757610141565b806301ffc9a714610145578063150b7a02146101815780633a871cdd146101bd57806344ab613f146101f957610141565b36610141577f88a5966d370b9919b20f3e2c13ff65706f196a4e32cc2c12bf57088f88525874333460405161013792919061278d565b60405180910390a1005b5f5ffd5b348015610150575f5ffd5b5061016b6004803603810190610166919061281a565b6104a1565b604051610178919061285f565b60405180910390f35b34801561018c575f5ffd5b506101a760048036038101906101a2919061292d565b61053a565b6040516101b491906129c0565b60405180910390f35b3480156101c8575f5ffd5b506101e360048036038101906101de9190612a2f565b61054e565b6040516101f09190612a9b565b60405180910390f35b348015610204575f5ffd5b5061020d61062b565b60405161021a9190612b0f565b60405180910390f35b34801561022e575f5ffd5b5061024960048036038101906102449190612c27565b610652565b6040516102569190612e02565b60405180910390f35b61027960048036038101906102749190612f4a565b6108e8565b005b348015610286575f5ffd5b506102a1600480360381019061029c9190612fa4565b610907565b6040516102ae9190612ffe565b60405180910390f35b3480156102c2575f5ffd5b506102cb610944565b6040516102d89190612ffe565b60405180910390f35b3480156102ec575f5ffd5b5061030760048036038101906103029190613017565b610975565b6040516103149190612e02565b60405180910390f35b348015610328575f5ffd5b506103316115b1565b60405161033e9190613091565b60405180910390f35b348015610352575f5ffd5b5061035b6115d6565b60405161036891906130aa565b60405180910390f35b34801561037c575f5ffd5b506103856115fa565b6040516103929190613115565b60405180910390f35b3480156103a6575f5ffd5b506103af611633565b6040516103bc9190612b0f565b60405180910390f35b3480156103d0575f5ffd5b506103eb60048036038101906103e69190613135565b611657565b6040516103f891906131ee565b60405180910390f35b34801561040c575f5ffd5b506104276004803603810190610422919061320e565b6117a2565b60405161043491906129c0565b60405180910390f35b348015610448575f5ffd5b50610463600480360381019061045e91906132e5565b6117b9565b005b348015610470575f5ffd5b5061048b60048036038101906104869190613310565b61193a565b60405161049891906129c0565b60405180910390f35b5f6301ffc9a760e01b827bffffffffffffffffffffffffffffffffffffffffffffffffffffffff1916148061053357507f3a871cdd000000000000000000000000000000000000000000000000000000007bffffffffffffffffffffffffffffffffffffffffffffffffffffffff1916827bffffffffffffffffffffffffffffffffffffffffffffffffffffffff1916145b9050919050565b5f63150b7a0260e01b905095945050505050565b5f7f000000000000000000000000000000000000000000000000000000000000000073ffffffffffffffffffffffffffffffffffffffff163373ffffffffffffffffffffffffffffffffffffffff16146105dd576040517f08c379a00000000000000000000000000000000000000000000000000000000081526004016105d4906133f0565b60405180910390fd5b6020848061014001906105f0919061341a565b905003610607576106008461194f565b9050610624565b610621838580610140019061061c919061341a565b611b22565b90505b9392505050565b5f7f0000000000000000000000000000000000000000000000000000000000000000905090565b60607f000000000000000000000000000000000000000000000000000000000000000073ffffffffffffffffffffffffffffffffffffffff163373ffffffffffffffffffffffffffffffffffffffff16146106e2576040517f08c379a00000000000000000000000000000000000000000000000000000000081526004016106d9906133f0565b60405180910390fd5b84849050878790501480156106fc57508282905087879050145b61073b576040517f08c379a0000000000000000000000000000000000000000000000000000000008152600401610732906134c6565b60405180910390fd5b8686905067ffffffffffffffff81111561075857610757612e26565b5b60405190808252806020026020018201604052801561078b57816020015b60608152602001906001900390816107765790505b5090505f5f90505b878790508110156108dd575f5f8989848181106107b3576107b26134e4565b5b90506020020160208101906107c891906132e5565b73ffffffffffffffffffffffffffffffffffffffff168888858181106107f1576107f06134e4565b5b9050602002013587878681811061080b5761080a6134e4565b5b905060200281019061081d919061341a565b60405161082b92919061353f565b5f6040518083038185875af1925050503d805f8114610865576040519150601f19603f3d011682016040523d82523d5f602084013e61086a565b606091505b5091509150816108af576040517f08c379a00000000000000000000000000000000000000000000000000000000081526004016108a6906135a1565b60405180910390fd5b808484815181106108c3576108c26134e4565b5b602002602001018190525050508080600101915050610793565b509695505050505050565b6108f0611bea565b6108f982611cd0565b6109038282611d97565b5050565b5f5f838381019061091891906135fa565b509050602081511015610930575f5f1b91505061093e565b5f6020820151905080925050505b92915050565b5f61094d611eb5565b7f360894a13ba1a3210667c828492db98dca3e2076cc3735a920a3ca505d382bbc5f1b905090565b60607f000000000000000000000000000000000000000000000000000000000000000073ffffffffffffffffffffffffffffffffffffffff163373ffffffffffffffffffffffffffffffffffffffff1614610a05576040517f08c379a00000000000000000000000000000000000000000000000000000000081526004016109fc906133f0565b60405180910390fd5b5f838051906020012090505f60015f9054906101000a900473ffffffffffffffffffffffffffffffffffffffff1673ffffffffffffffffffffffffffffffffffffffff1663f13c46aa836040518263ffffffff1660e01b8152600401610a6b9190612ffe565b5f60405180830381865afa158015610a85573d5f5f3e3d5ffd5b505050506040513d5f823e3d601f19601f82011682018060405250810190610aad91906139e0565b90503073ffffffffffffffffffffffffffffffffffffffff16815f015173ffffffffffffffffffffffffffffffffffffffff1614610b20576040517f08c379a0000000000000000000000000000000000000000000000000000000008152600401610b1790613a71565b60405180910390fd5b4281610100015111610b67576040517f08c379a0000000000000000000000000000000000000000000000000000000008152600401610b5e90613ad9565b60405180910390fd5b468160c0015167ffffffffffffffff160361102c575f60015f9054906101000a900473ffffffffffffffffffffffffffffffffffffffff1673ffffffffffffffffffffffffffffffffffffffff1663030b2cc9846040518263ffffffff1660e01b8152600401610bd79190612ffe565b602060405180830381865afa158015610bf2573d5f5f3e3d5ffd5b505050506040513d601f19601f82011682018060405250810190610c169190613b21565b905080610c58576040517f08c379a0000000000000000000000000000000000000000000000000000000008152600401610c4f90613bbc565b60405180910390fd5b5f151560015f9054906101000a900473ffffffffffffffffffffffffffffffffffffffff1673ffffffffffffffffffffffffffffffffffffffff16636eeee43f856040518263ffffffff1660e01b8152600401610cb59190612ffe565b602060405180830381865afa158015610cd0573d5f5f3e3d5ffd5b505050506040513d601f19601f82011682018060405250810190610cf49190613b21565b151514610d36576040517f08c379a0000000000000000000000000000000000000000000000000000000008152600401610d2d90613c24565b60405180910390fd5b5f8260e00151806020019051810190610d4f9190613d9d565b9050805167ffffffffffffffff811115610d6c57610d6b612e26565b5b604051908082528060200260200182016040528015610d9f57816020015b6060815260200190600190039081610d8a5790505b5094505f5f90505b8151811015610ee3575f5f838381518110610dc557610dc46134e4565b5b60200260200101515f015173ffffffffffffffffffffffffffffffffffffffff16848481518110610df957610df86134e4565b5b602002602001015160200151858581518110610e1857610e176134e4565b5b602002602001015160400151604051610e319190613e14565b5f6040518083038185875af1925050503d805f8114610e6b576040519150601f19603f3d011682016040523d82523d5f602084013e610e70565b606091505b509150915081610eb5576040517f08c379a0000000000000000000000000000000000000000000000000000000008152600401610eac906135a1565b60405180910390fd5b80888481518110610ec957610ec86134e4565b5b602002602001018190525050508080600101915050610da7565b505f60015f9054906101000a900473ffffffffffffffffffffffffffffffffffffffff1673ffffffffffffffffffffffffffffffffffffffff16637fed1b6d60e01b8689604051602401610f38929190613e2a565b604051602081830303815290604052907bffffffffffffffffffffffffffffffffffffffffffffffffffffffff19166020820180517bffffffffffffffffffffffffffffffffffffffffffffffffffffffff8381831617835250505050604051610fa29190613e14565b5f604051808303815f865af19150503d805f8114610fdb576040519150601f19603f3d011682016040523d82523d5f602084013e610fe0565b606091505b5050905080611024576040517f08c379a000000000000000000000000000000000000000000000000000000000815260040161101b90613e9b565b60405180910390fd5b505050611564565b5f5f90505f5f90505b82608001515181101561109e57468360800151828151811061105a576110596134e4565b5b602002602001015167ffffffffffffffff1603611093578260a001518181518110611088576110876134e4565b5b602002602001015191505b806001019050611035565b505f81116110e1576040517f08c379a00000000000000000000000000000000000000000000000000000000081526004016110d890613f29565b60405180910390fd5b5f60015f9054906101000a900473ffffffffffffffffffffffffffffffffffffffff1673ffffffffffffffffffffffffffffffffffffffff1663919adab884606001516040518263ffffffff1660e01b81526004016111409190613f56565b60a060405180830381865afa15801561115b573d5f5f3e3d5ffd5b505050506040513d601f19601f8201168201806040525081019061117f9190613ff8565b905081816020015173ffffffffffffffffffffffffffffffffffffffff166370a08231306040518263ffffffff1660e01b81526004016111bf91906130aa565b602060405180830381865afa1580156111da573d5f5f3e3d5ffd5b505050506040513d601f19601f820116820180604052508101906111fe9190614023565b101561123f576040517f08c379a0000000000000000000000000000000000000000000000000000000008152600401611236906140be565b60405180910390fd5b5f5f826020015173ffffffffffffffffffffffffffffffffffffffff1663095ea7b360e01b60015f9054906101000a900473ffffffffffffffffffffffffffffffffffffffff168660405160240161129892919061278d565b604051602081830303815290604052907bffffffffffffffffffffffffffffffffffffffffffffffffffffffff19166020820180517bffffffffffffffffffffffffffffffffffffffffffffffffffffffff83818316178352505050506040516113029190613e14565b5f604051808303815f865af19150503d805f811461133b576040519150601f19603f3d011682016040523d82523d5f602084013e611340565b606091505b509150915081611385576040517f08c379a000000000000000000000000000000000000000000000000000000000815260040161137c906135a1565b60405180910390fd5b5f5f60015f9054906101000a900473ffffffffffffffffffffffffffffffffffffffff1673ffffffffffffffffffffffffffffffffffffffff16631681f46560e01b898c6040516024016113da929190613e2a565b604051602081830303815290604052907bffffffffffffffffffffffffffffffffffffffffffffffffffffffff19166020820180517bffffffffffffffffffffffffffffffffffffffffffffffffffffffff83818316178352505050506040516114449190613e14565b5f604051808303815f865af19150503d805f811461147d576040519150601f19603f3d011682016040523d82523d5f602084013e611482565b606091505b5091509150816114c7576040517f08c379a00000000000000000000000000000000000000000000000000000000081526004016114be906135a1565b60405180910390fd5b600267ffffffffffffffff8111156114e2576114e1612e26565b5b60405190808252806020026020018201604052801561151557816020015b60608152602001906001900390816115005790505b50985082895f8151811061152c5761152b6134e4565b5b6020026020010181905250808960018151811061154c5761154b6134e4565b5b602002602001018190525050505050505050506115ab565b8373ffffffffffffffffffffffffffffffffffffffff16827f7609c4682ba7f8b1ce404cb9cba36c78ce48c73460b8c8d57a1daca1842e80e860405160405180910390a350505b92915050565b60015f9054906101000a900473ffffffffffffffffffffffffffffffffffffffff1681565b5f5f9054906101000a900473ffffffffffffffffffffffffffffffffffffffff1681565b6040518060400160405280600581526020017f352e302e3000000000000000000000000000000000000000000000000000000081525081565b7f000000000000000000000000000000000000000000000000000000000000000081565b60607f000000000000000000000000000000000000000000000000000000000000000073ffffffffffffffffffffffffffffffffffffffff163373ffffffffffffffffffffffffffffffffffffffff16146116e7576040517f08c379a00000000000000000000000000000000000000000000000000000000081526004016116de906133f0565b60405180910390fd5b5f5f8673ffffffffffffffffffffffffffffffffffffffff1686868660405161171192919061353f565b5f6040518083038185875af1925050503d805f811461174b576040519150601f19603f3d011682016040523d82523d5f602084013e611750565b606091505b509150915081611795576040517f08c379a000000000000000000000000000000000000000000000000000000000815260040161178c906135a1565b60405180910390fd5b8092505050949350505050565b5f63bc197c8160e01b905098975050505050505050565b5f6117c2611f3c565b90505f815f0160089054906101000a900460ff161590505f825f015f9054906101000a900467ffffffffffffffff1690505f5f8267ffffffffffffffff1614801561180a5750825b90505f60018367ffffffffffffffff1614801561183d57505f3073ffffffffffffffffffffffffffffffffffffffff163b145b90508115801561184b575080155b15611882576040517ff92ee8a900000000000000000000000000000000000000000000000000000000815260040160405180910390fd5b6001855f015f6101000a81548167ffffffffffffffff021916908367ffffffffffffffff16021790555083156118cf576001855f0160086101000a81548160ff0219169083151502179055505b6118d886611f4f565b8315611932575f855f0160086101000a81548160ff0219169083151502179055507fc7f505b2f371ae2175ee4913f4499e1f2633a7b5936321eed1cdaeb6115181d260016040516119299190614115565b60405180910390a15b505050505050565b5f63f23a6e6160e01b90509695505050505050565b5f5f82806101400190611962919061341a565b9061196d9190614144565b90505f5f1b8103611982576001915050611b1d565b6004838060600190611994919061341a565b905010156119a6576001915050611b1d565b5f8380606001906119b7919061341a565b5f906004926119c8939291906141aa565b906119d391906141e4565b90507f6d1b47cd643edc005de8354db08fb4fd1bbe7659ffbd63a9383ba7d8e0de72907bffffffffffffffffffffffffffffffffffffffffffffffffffffffff1916817bffffffffffffffffffffffffffffffffffffffffffffffffffffffff191614611a4557600192505050611b1d565b611a5e848060600190611a58919061341a565b8461202b565b611a6d57600192505050611b1d565b60015f9054906101000a900473ffffffffffffffffffffffffffffffffffffffff1673ffffffffffffffffffffffffffffffffffffffff16635008dd8d83306040518363ffffffff1660e01b8152600401611ac9929190613e2a565b602060405180830381865afa158015611ae4573d5f5f3e3d5ffd5b505050506040513d601f19601f82011682018060405250810190611b089190613b21565b611b1757600192505050611b1d565b5f925050505b919050565b5f5f611b2d856120ee565b90505f611b7d8286868080601f0160208091040260200160405190810160405280939291908181526020018383808284375f81840152601f19601f82011690508083019250505050505050612121565b90508073ffffffffffffffffffffffffffffffffffffffff165f5f9054906101000a900473ffffffffffffffffffffffffffffffffffffffff1673ffffffffffffffffffffffffffffffffffffffff1614611bdd57600192505050611be3565b5f925050505b9392505050565b7f000000000000000000000000000000000000000000000000000000000000000073ffffffffffffffffffffffffffffffffffffffff163073ffffffffffffffffffffffffffffffffffffffff161480611c9757507f000000000000000000000000000000000000000000000000000000000000000073ffffffffffffffffffffffffffffffffffffffff16611c7e61214b565b73ffffffffffffffffffffffffffffffffffffffff1614155b15611cce576040517fe07c8dba00000000000000000000000000000000000000000000000000000000815260040160405180910390fd5b565b5f5f9054906101000a900473ffffffffffffffffffffffffffffffffffffffff1673ffffffffffffffffffffffffffffffffffffffff163373ffffffffffffffffffffffffffffffffffffffff161480611d5557503073ffffffffffffffffffffffffffffffffffffffff163373ffffffffffffffffffffffffffffffffffffffff16145b611d94576040517f08c379a0000000000000000000000000000000000000000000000000000000008152600401611d8b9061428c565b60405180910390fd5b50565b8173ffffffffffffffffffffffffffffffffffffffff166352d1902d6040518163ffffffff1660e01b8152600401602060405180830381865afa925050508015611dff57506040513d601f19601f82011682018060405250810190611dfc91906142be565b60015b611e4057816040517f4c9c8ce3000000000000000000000000000000000000000000000000000000008152600401611e3791906130aa565b60405180910390fd5b7f360894a13ba1a3210667c828492db98dca3e2076cc3735a920a3ca505d382bbc5f1b8114611ea657806040517faa1d49a4000000000000000000000000000000000000000000000000000000008152600401611e9d9190612ffe565b60405180910390fd5b611eb0838361219e565b505050565b7f000000000000000000000000000000000000000000000000000000000000000073ffffffffffffffffffffffffffffffffffffffff163073ffffffffffffffffffffffffffffffffffffffff1614611f3a576040517fe07c8dba00000000000000000000000000000000000000000000000000000000815260040160405180910390fd5b565b5f5f611f46612210565b90508091505090565b805f5f6101000a81548173ffffffffffffffffffffffffffffffffffffffff021916908373ffffffffffffffffffffffffffffffffffffffff1602179055505f5f9054906101000a900473ffffffffffffffffffffffffffffffffffffffff1673ffffffffffffffffffffffffffffffffffffffff167f000000000000000000000000000000000000000000000000000000000000000073ffffffffffffffffffffffffffffffffffffffff167f21746608c4021c6b608c41f3001b41605e5feffb8219750f38bb7d9081b5e77e60405160405180910390a350565b5f6044848490501015612040575f90506120e7565b3073ffffffffffffffffffffffffffffffffffffffff166352c64e598585600490809261206f939291906141aa565b6040518363ffffffff1660e01b815260040161208c929190614315565b602060405180830381865afa9250505080156120c657506040513d601f19601f820116820180604052508101906120c391906142be565b60015b6120d2575f90506120e7565b82811480156120e357505f5f1b8114155b9150505b9392505050565b5f7f19457468657265756d205369676e6564204d6573736167653a0a3332000000005f5281601c52603c5f209050919050565b5f5f5f5f61212f8686612239565b92509250925061213f828261228e565b82935050505092915050565b5f6121777f360894a13ba1a3210667c828492db98dca3e2076cc3735a920a3ca505d382bbc5f1b6123f0565b5f015f9054906101000a900473ffffffffffffffffffffffffffffffffffffffff16905090565b6121a7826123f9565b8173ffffffffffffffffffffffffffffffffffffffff167fbc7cd75a20ee27fd9adebab32041f755214dbc6bffa90cc0225b39da2e5c2d3b60405160405180910390a25f81511115612203576121fd82826124c2565b5061220c565b61220b612542565b5b5050565b5f7ff0c57e16840df040f15088dc2f81fe391c3923bec73e23a9662efc9c229c6a005f1b905090565b5f5f5f6041845103612279575f5f5f602087015192506040870151915060608701515f1a905061226b8882858561257e565b955095509550505050612287565b5f600285515f1b9250925092505b9250925092565b5f60038111156122a1576122a0614337565b5b8260038111156122b4576122b3614337565b5b03156123ec57600160038111156122ce576122cd614337565b5b8260038111156122e1576122e0614337565b5b03612318576040517ff645eedf00000000000000000000000000000000000000000000000000000000815260040160405180910390fd5b6002600381111561232c5761232b614337565b5b82600381111561233f5761233e614337565b5b0361238357805f1c6040517ffce698f700000000000000000000000000000000000000000000000000000000815260040161237a9190612a9b565b60405180910390fd5b60038081111561239657612395614337565b5b8260038111156123a9576123a8614337565b5b036123eb57806040517fd78bce0c0000000000000000000000000000000000000000000000000000000081526004016123e29190612ffe565b60405180910390fd5b5b5050565b5f819050919050565b5f8173ffffffffffffffffffffffffffffffffffffffff163b0361245457806040517f4c9c8ce300000000000000000000000000000000000000000000000000000000815260040161244b91906130aa565b60405180910390fd5b806124807f360894a13ba1a3210667c828492db98dca3e2076cc3735a920a3ca505d382bbc5f1b6123f0565b5f015f6101000a81548173ffffffffffffffffffffffffffffffffffffffff021916908373ffffffffffffffffffffffffffffffffffffffff16021790555050565b60605f5f8473ffffffffffffffffffffffffffffffffffffffff16846040516124eb9190613e14565b5f60405180830381855af49150503d805f8114612523576040519150601f19603f3d011682016040523d82523d5f602084013e612528565b606091505b5091509150612538858383612665565b9250505092915050565b5f34111561257c576040517fb398979f00000000000000000000000000000000000000000000000000000000815260040160405180910390fd5b565b5f5f5f7f7fffffffffffffffffffffffffffffff5d576e7357a4501ddfe92f46681b20a0845f1c11156125ba575f60038592509250925061265b565b5f6001888888886040515f81526020016040526040516125dd949392919061437f565b6020604051602081039080840390855afa1580156125fd573d5f5f3e3d5ffd5b5050506020604051035190505f73ffffffffffffffffffffffffffffffffffffffff168173ffffffffffffffffffffffffffffffffffffffff160361264e575f60015f5f1b9350935093505061265b565b805f5f5f1b935093509350505b9450945094915050565b60608261267a57612675826126f2565b6126ea565b5f82511480156126a057505f8473ffffffffffffffffffffffffffffffffffffffff163b145b156126e257836040517f9996b3150000000000000000000000000000000000000000000000000000000081526004016126d991906130aa565b60405180910390fd5b8190506126eb565b5b9392505050565b5f815111156127045780518082602001fd5b6040517fd6bda27500000000000000000000000000000000000000000000000000000000815260040160405180910390fd5b5f73ffffffffffffffffffffffffffffffffffffffff82169050919050565b5f61275f82612736565b9050919050565b61276f81612755565b82525050565b5f819050919050565b61278781612775565b82525050565b5f6040820190506127a05f830185612766565b6127ad602083018461277e565b9392505050565b5f604051905090565b5f5ffd5b5f5ffd5b5f7fffffffff0000000000000000000000000000000000000000000000000000000082169050919050565b6127f9816127c5565b8114612803575f5ffd5b50565b5f81359050612814816127f0565b92915050565b5f6020828403121561282f5761282e6127bd565b5b5f61283c84828501612806565b91505092915050565b5f8115159050919050565b61285981612845565b82525050565b5f6020820190506128725f830184612850565b92915050565b61288181612755565b811461288b575f5ffd5b50565b5f8135905061289c81612878565b92915050565b6128ab81612775565b81146128b5575f5ffd5b50565b5f813590506128c6816128a2565b92915050565b5f5ffd5b5f5ffd5b5f5ffd5b5f5f83601f8401126128ed576128ec6128cc565b5b8235905067ffffffffffffffff81111561290a576129096128d0565b5b602083019150836001820283011115612926576129256128d4565b5b9250929050565b5f5f5f5f5f60808688031215612946576129456127bd565b5b5f6129538882890161288e565b95505060206129648882890161288e565b9450506040612975888289016128b8565b935050606086013567ffffffffffffffff811115612996576129956127c1565b5b6129a2888289016128d8565b92509250509295509295909350565b6129ba816127c5565b82525050565b5f6020820190506129d35f8301846129b1565b92915050565b5f5ffd5b5f61016082840312156129f3576129f26129d9565b5b81905092915050565b5f819050919050565b612a0e816129fc565b8114612a18575f5ffd5b50565b5f81359050612a2981612a05565b92915050565b5f5f5f60608486031215612a4657612a456127bd565b5b5f84013567ffffffffffffffff811115612a6357612a626127c1565b5b612a6f868287016129dd565b9350506020612a8086828701612a1b565b9250506040612a91868287016128b8565b9150509250925092565b5f602082019050612aae5f83018461277e565b92915050565b5f819050919050565b5f612ad7612ad2612acd84612736565b612ab4565b612736565b9050919050565b5f612ae882612abd565b9050919050565b5f612af982612ade565b9050919050565b612b0981612aef565b82525050565b5f602082019050612b225f830184612b00565b92915050565b5f5f83601f840112612b3d57612b3c6128cc565b5b8235905067ffffffffffffffff811115612b5a57612b596128d0565b5b602083019150836020820283011115612b7657612b756128d4565b5b9250929050565b5f5f83601f840112612b9257612b916128cc565b5b8235905067ffffffffffffffff811115612baf57612bae6128d0565b5b602083019150836020820283011115612bcb57612bca6128d4565b5b9250929050565b5f5f83601f840112612be757612be66128cc565b5b8235905067ffffffffffffffff811115612c0457612c036128d0565b5b602083019150836020820283011115612c2057612c1f6128d4565b5b9250929050565b5f5f5f5f5f5f60608789031215612c4157612c406127bd565b5b5f87013567ffffffffffffffff811115612c5e57612c5d6127c1565b5b612c6a89828a01612b28565b9650965050602087013567ffffffffffffffff811115612c8d57612c8c6127c1565b5b612c9989828a01612b7d565b9450945050604087013567ffffffffffffffff811115612cbc57612cbb6127c1565b5b612cc889828a01612bd2565b92509250509295509295509295565b5f81519050919050565b5f82825260208201905092915050565b5f819050602082019050919050565b5f81519050919050565b5f82825260208201905092915050565b8281835e5f83830152505050565b5f601f19601f8301169050919050565b5f612d4282612d00565b612d4c8185612d0a565b9350612d5c818560208601612d1a565b612d6581612d28565b840191505092915050565b5f612d7b8383612d38565b905092915050565b5f602082019050919050565b5f612d9982612cd7565b612da38185612ce1565b935083602082028501612db585612cf1565b805f5b85811015612df05784840389528151612dd18582612d70565b9450612ddc83612d83565b925060208a01995050600181019050612db8565b50829750879550505050505092915050565b5f6020820190508181035f830152612e1a8184612d8f565b905092915050565b5f5ffd5b7f4e487b71000000000000000000000000000000000000000000000000000000005f52604160045260245ffd5b612e5c82612d28565b810181811067ffffffffffffffff82111715612e7b57612e7a612e26565b5b80604052505050565b5f612e8d6127b4565b9050612e998282612e53565b919050565b5f67ffffffffffffffff821115612eb857612eb7612e26565b5b612ec182612d28565b9050602081019050919050565b828183375f83830152505050565b5f612eee612ee984612e9e565b612e84565b905082815260208101848484011115612f0a57612f09612e22565b5b612f15848285612ece565b509392505050565b5f82601f830112612f3157612f306128cc565b5b8135612f41848260208601612edc565b91505092915050565b5f5f60408385031215612f6057612f5f6127bd565b5b5f612f6d8582860161288e565b925050602083013567ffffffffffffffff811115612f8e57612f8d6127c1565b5b612f9a85828601612f1d565b9150509250929050565b5f5f60208385031215612fba57612fb96127bd565b5b5f83013567ffffffffffffffff811115612fd757612fd66127c1565b5b612fe3858286016128d8565b92509250509250929050565b612ff8816129fc565b82525050565b5f6020820190506130115f830184612fef565b92915050565b5f5f6040838503121561302d5761302c6127bd565b5b5f83013567ffffffffffffffff81111561304a576130496127c1565b5b61305685828601612f1d565b92505060206130678582860161288e565b9150509250929050565b5f61307b82612ade565b9050919050565b61308b81613071565b82525050565b5f6020820190506130a45f830184613082565b92915050565b5f6020820190506130bd5f830184612766565b92915050565b5f81519050919050565b5f82825260208201905092915050565b5f6130e7826130c3565b6130f181856130cd565b9350613101818560208601612d1a565b61310a81612d28565b840191505092915050565b5f6020820190508181035f83015261312d81846130dd565b905092915050565b5f5f5f5f6060858703121561314d5761314c6127bd565b5b5f61315a8782880161288e565b945050602061316b878288016128b8565b935050604085013567ffffffffffffffff81111561318c5761318b6127c1565b5b613198878288016128d8565b925092505092959194509250565b5f82825260208201905092915050565b5f6131c082612d00565b6131ca81856131a6565b93506131da818560208601612d1a565b6131e381612d28565b840191505092915050565b5f6020820190508181035f83015261320681846131b6565b905092915050565b5f5f5f5f5f5f5f5f60a0898b03121561322a576132296127bd565b5b5f6132378b828c0161288e565b98505060206132488b828c0161288e565b975050604089013567ffffffffffffffff811115613269576132686127c1565b5b6132758b828c01612b7d565b9650965050606089013567ffffffffffffffff811115613298576132976127c1565b5b6132a48b828c01612b7d565b9450945050608089013567ffffffffffffffff8111156132c7576132c66127c1565b5b6132d38b828c016128d8565b92509250509295985092959890939650565b5f602082840312156132fa576132f96127bd565b5b5f6133078482850161288e565b91505092915050565b5f5f5f5f5f5f60a0878903121561332a576133296127bd565b5b5f61333789828a0161288e565b965050602061334889828a0161288e565b955050604061335989828a016128b8565b945050606061336a89828a016128b8565b935050608087013567ffffffffffffffff81111561338b5761338a6127c1565b5b61339789828a016128d8565b92509250509295509295509295565b7f4f6e6c7920456e747279506f696e742063616e2063616c6c00000000000000005f82015250565b5f6133da6018836130cd565b91506133e5826133a6565b602082019050919050565b5f6020820190508181035f830152613407816133ce565b9050919050565b5f5ffd5b5f5ffd5b5f5ffd5b5f5f833560016020038436030381126134365761343561340e565b5b80840192508235915067ffffffffffffffff82111561345857613457613412565b5b60208301925060018202360383131561347457613473613416565b5b509250929050565b7f4172726179206c656e677468206d69736d6174636800000000000000000000005f82015250565b5f6134b06015836130cd565b91506134bb8261347c565b602082019050919050565b5f6020820190508181035f8301526134dd816134a4565b9050919050565b7f4e487b71000000000000000000000000000000000000000000000000000000005f52603260045260245ffd5b5f81905092915050565b5f6135268385613511565b9350613533838584612ece565b82840190509392505050565b5f61354b82848661351b565b91508190509392505050565b7f5472616e73616374696f6e20657865637574696f6e206661696c6564000000005f82015250565b5f61358b601c836130cd565b915061359682613557565b602082019050919050565b5f6020820190508181035f8301526135b88161357f565b9050919050565b5f6135c982612736565b9050919050565b6135d9816135bf565b81146135e3575f5ffd5b50565b5f813590506135f4816135d0565b92915050565b5f5f604083850312156136105761360f6127bd565b5b5f83013567ffffffffffffffff81111561362d5761362c6127c1565b5b61363985828601612f1d565b925050602061364a858286016135e6565b9150509250929050565b5f5ffd5b5f5ffd5b5f8151905061366a81612878565b92915050565b5f67ffffffffffffffff82169050919050565b61368c81613670565b8114613696575f5ffd5b50565b5f815190506136a781613683565b92915050565b5f67ffffffffffffffff8211156136c7576136c6612e26565b5b602082029050602081019050919050565b5f6136ea6136e5846136ad565b612e84565b9050808382526020820190506020840283018581111561370d5761370c6128d4565b5b835b8181101561373657806137228882613699565b84526020840193505060208101905061370f565b5050509392505050565b5f82601f830112613754576137536128cc565b5b81516137648482602086016136d8565b91505092915050565b5f67ffffffffffffffff82111561378757613786612e26565b5b602082029050602081019050919050565b5f815190506137a6816128a2565b92915050565b5f6137be6137b98461376d565b612e84565b905080838252602082019050602084028301858111156137e1576137e06128d4565b5b835b8181101561380a57806137f68882613798565b8452602084019350506020810190506137e3565b5050509392505050565b5f82601f830112613828576138276128cc565b5b81516138388482602086016137ac565b91505092915050565b5f61385361384e84612e9e565b612e84565b90508281526020810184848401111561386f5761386e612e22565b5b61387a848285612d1a565b509392505050565b5f82601f830112613896576138956128cc565b5b81516138a6848260208601613841565b91505092915050565b5f61012082840312156138c5576138c4613654565b5b6138d0610120612e84565b90505f6138df8482850161365c565b5f8301525060206138f284828501613699565b602083015250604061390684828501613699565b604083015250606061391a84828501613699565b606083015250608082015167ffffffffffffffff81111561393e5761393d613658565b5b61394a84828501613740565b60808301525060a082015167ffffffffffffffff81111561396e5761396d613658565b5b61397a84828501613814565b60a08301525060c061398e84828501613699565b60c08301525060e082015167ffffffffffffffff8111156139b2576139b1613658565b5b6139be84828501613882565b60e0830152506101006139d384828501613798565b6101008301525092915050565b5f602082840312156139f5576139f46127bd565b5b5f82015167ffffffffffffffff811115613a1257613a116127c1565b5b613a1e848285016138af565b91505092915050565b7f696e74656e74206d7573742062656c6f6e6720746f2063616c6c6572000000005f82015250565b5f613a5b601c836130cd565b9150613a6682613a27565b602082019050919050565b5f6020820190508181035f830152613a8881613a4f565b9050919050565b7f496e74656e7420657870697265640000000000000000000000000000000000005f82015250565b5f613ac3600e836130cd565b9150613ace82613a8f565b602082019050919050565b5f6020820190508181035f830152613af081613ab7565b9050919050565b613b0081612845565b8114613b0a575f5ffd5b50565b5f81519050613b1b81613af7565b92915050565b5f60208284031215613b3657613b356127bd565b5b5f613b4384828501613b0d565b91505092915050565b7f4e6f206e65656420746f206578656375746520696e74656e742e20696e74656e5f8201527f742064657374696e6174696f6e206e6f742066756c6c7920736574746c656400602082015250565b5f613ba6603f836130cd565b9150613bb182613b4c565b604082019050919050565b5f6020820190508181035f830152613bd381613b9a565b9050919050565b7f496e76616c6964206f7220657865637574656420696e74656e744964000000005f82015250565b5f613c0e601c836130cd565b9150613c1982613bda565b602082019050919050565b5f6020820190508181035f830152613c3b81613c02565b9050919050565b5f67ffffffffffffffff821115613c5c57613c5b612e26565b5b602082029050602081019050919050565b5f60608284031215613c8257613c81613654565b5b613c8c6060612e84565b90505f613c9b8482850161365c565b5f830152506020613cae84828501613798565b602083015250604082015167ffffffffffffffff811115613cd257613cd1613658565b5b613cde84828501613882565b60408301525092915050565b5f613cfc613cf784613c42565b612e84565b90508083825260208201905060208402830185811115613d1f57613d1e6128d4565b5b835b81811015613d6657805167ffffffffffffffff811115613d4457613d436128cc565b5b808601613d518982613c6d565b85526020850194505050602081019050613d21565b5050509392505050565b5f82601f830112613d8457613d836128cc565b5b8151613d94848260208601613cea565b91505092915050565b5f60208284031215613db257613db16127bd565b5b5f82015167ffffffffffffffff811115613dcf57613dce6127c1565b5b613ddb84828501613d70565b91505092915050565b5f613dee82612d00565b613df88185613511565b9350613e08818560208601612d1a565b80840191505092915050565b5f613e1f8284613de4565b915081905092915050565b5f604082019050613e3d5f830185612fef565b613e4a6020830184612766565b9392505050565b7f436f756c64206e6f7420736574746c65206578656375746f72000000000000005f82015250565b5f613e856019836130cd565b9150613e9082613e51565b602082019050919050565b5f6020820190508181035f830152613eb281613e79565b9050919050565b7f436861696e206973206e6569746865722064657374696e6174696f6e206e6f725f8201527f206120736f7572636520636861696e0000000000000000000000000000000000602082015250565b5f613f13602f836130cd565b9150613f1e82613eb9565b604082019050919050565b5f6020820190508181035f830152613f4081613f07565b9050919050565b613f5081613670565b82525050565b5f602082019050613f695f830184613f47565b92915050565b5f60a08284031215613f8457613f83613654565b5b613f8e60a0612e84565b90505f613f9d84828501613699565b5f830152506020613fb08482850161365c565b6020830152506040613fc48482850161365c565b6040830152506060613fd884828501613798565b6060830152506080613fec84828501613798565b60808301525092915050565b5f60a0828403121561400d5761400c6127bd565b5b5f61401a84828501613f6f565b91505092915050565b5f60208284031215614038576140376127bd565b5b5f61404584828501613798565b91505092915050565b7f496e73756666696369656e742062616c616e636520746f2073656e6420746f205f8201527f64657374696e6174696f6e20636861696e000000000000000000000000000000602082015250565b5f6140a86031836130cd565b91506140b38261404e565b604082019050919050565b5f6020820190508181035f8301526140d58161409c565b9050919050565b5f819050919050565b5f6140ff6140fa6140f5846140dc565b612ab4565b613670565b9050919050565b61410f816140e5565b82525050565b5f6020820190506141285f830184614106565b92915050565b5f82905092915050565b5f82821b905092915050565b5f61414f838361412e565b8261415a81356129fc565b9250602082101561419a576141957fffffffffffffffffffffffffffffffffffffffffffffffffffffffffffffffff83602003600802614138565b831692505b505092915050565b5f5ffd5b5f5ffd5b5f5f858511156141bd576141bc6141a2565b5b838611156141ce576141cd6141a6565b5b6001850283019150848603905094509492505050565b5f6141ef838361412e565b826141fa81356127c5565b9250600482101561423a576142357fffffffff0000000000000000000000000000000000000000000000000000000083600403600802614138565b831692505b505092915050565b7f6f6e6c79206f776e6572000000000000000000000000000000000000000000005f82015250565b5f614276600a836130cd565b915061428182614242565b602082019050919050565b5f6020820190508181035f8301526142a38161426a565b9050919050565b5f815190506142b881612a05565b92915050565b5f602082840312156142d3576142d26127bd565b5b5f6142e0848285016142aa565b91505092915050565b5f6142f483856131a6565b9350614301838584612ece565b61430a83612d28565b840190509392505050565b5f6020820190508181035f83015261432e8184866142e9565b90509392505050565b7f4e487b71000000000000000000000000000000000000000000000000000000005f52602160045260245ffd5b5f60ff82169050919050565b61437981614364565b82525050565b5f6080820190506143925f830187612fef565b61439f6020830186614370565b6143ac6040830185612fef565b6143b96060830184612fef565b9594505050505056fea26469706673582212202be648d34657d452bed41e1b0b331983735a35452f4b0a0b740c25ec183e220964736f6c634300081c0033",
  "linkReferences": {},
  "deployedLinkReferences": {},
  "immutableReferences": {
    "110": [
      {
        "length": 32,
        "start": 1361
      },
      {
        "length": 32,
        "start": 1582
      },
      {
        "length": 32,
        "start": 1622
      },
      {
        "length": 32,
        "start": 2425
      },
      {
        "length": 32,
        "start": 5685
      },
      {
        "length": 32,
        "start": 5723
      },
      {
        "length": 32,
        "start": 8135
      }
    ],
    "8737": [
      {
        "length": 32,
        "start": 7148
      },
      {
        "length": 32,
        "start": 7233
      },
      {
        "length": 32,
        "start": 7863
      }
    ]
  },
  "inputSourceName": "contracts/account/BondSmartAccount.sol",
  "buildInfoId": "02d258992354856323e3d63413a4b13ec85fee82"
}