{
  "_format": "hh3-artifact-1",
  "contractName": "BondAccountFactory",
  "sourceName": "contracts/factory/BondAccountFactory.sol",
  "abi": [
    {
      "inputs": [
        {
          "internalType": "address",
          "name": "_implementation",
          "type": "address"
        },
        {
          "internalType": "address",
          "name": "_entryPoint",
          "type": "address"
        },
        {
          "internalType": "address",
          "name": "_protocol",
          "type": "address"
        }
      ],
      "stateMutability": "nonpayable",
      "type": "constructor"
    },
    {
      "inputs": [],
      "name": "Create2EmptyBytecode",
      "type": "error"
    },
    {
      "inputs": [],
      "name": "FailedDeployment",
      "type": "error"
    },
    {
      "inputs": [
        {
          "internalType": "uint256",
          "name": "balance",
          "type": "uint256"
        },
        {
          "internalType": "uint256",
          "name": "needed",
          "type": "uint256"
        }
      ],
      "name": "InsufficientBalance",
      "type": "error"
    },
    {
      "anonymous": false,
      "inputs": [
        {
          "indexed": true,
          "internalType": "address",
          "name": "account",
          "type": "address"
        },
        {
          "indexed": true,
          "internalType": "address",
          "name": "owner",
          "type": "address"
        },
        {
          "indexed": false,
          "internalType": "bytes32",
          "name": "salt",
          "type": "bytes32"
        }
      ],
      "name": "AccountCreated",
      "type": "event"
    },
    {
      "inputs": [
        {
          "internalType": "address",
          "name": "owner",
          "type": "address"
        },
        {
          "internalType": "bytes32",
          "name": "salt",
          "type": "bytes32"
        }
      ],
      "name": "createAccount",
      "outputs": [
        {
          "internalType": "address",
          "name": "",
          "type": "address"
        }
      ],
      "stateMutability": "nonpayable",
      "type": "function"
    },
    {
      "inputs": [],
      "name": "entryPoint",
      "outputs": [
        {
          "internalType": "address",
          "name": "",
          "type": "address"
        }
      ],
      "stateMutability": "view",
      "type": "function"
    },
    {
      "inputs": [
        {
          "internalType": "address",
          "name": "owner",
          "type": "address"
        },
        {
          "internalType": "uint256",
          "name": "index",
          "type": "uint256"
        }
      ],
      "name": "generateSalt",
      "outputs": [
        {
          "internalType": "bytes32",
          "name": "",
          "type": "bytes32"
        }
      ],
      "stateMutability": "pure",
      "type": "function"
    },
    {
      "inputs": [
        {
          "internalType": "address",
          "name": "owner",
          "type": "address"
        },
        {
          "internalType": "bytes32",
          "name": "salt",
          "type": "bytes32"
        }
      ],
      "name": "getAccountAddress",
      "outputs": [
        {
          "internalType": "address",
          "name": "",
          "type": "address"
        }
      ],
      "stateMutability": "view",
      "type": "function"
    },
    {
      "inputs": [],
      "name": "getEntryPoint",
      "outputs": [
        {
          "internalType": "address",
          "name": "",
          "type": "address"
        }
      ],
      "stateMutability": "view",
      "type": "function"
    },
    {
      "inputs": [],
      "name": "getProtocol",
      "outputs": [
        {
          "internalType": "address",
          "name": "",
          "type": "address"
        }
      ],
      "stateMutability": "view",
      "type": "function"
    },
    {
      "inputs": [],
      "name": "implementation",
      "outputs": [
        {
          "internalType": "address",
          "name": "",
          "type": "address"
        }
      ],
      "stateMutability": "view",
      "type": "function"
    },
    {
      "inputs": [],
      "name": "protocol",
      "outputs": [
        {
          "internalType": "address",
          "name": "",
          "type": "address"
        }
      ],
      "stateMutability": "view",
      "type": "function"
    }
  ],
  "bytecode": "0x60c060405234801561000f575f5ffd5b50604051611628380380611628833981810160405281019061003191906102e1565b5f73ffffffffffffffffffffffffffffffffffffffff168373ffffffffffffffffffffffffffffffffffffffff160361009f576040517f08c379a00000000000000000000000000000000000000000000000000000000081526004016100969061038b565b60405180910390fd5b5f8373ffffffffffffffffffffffffffffffffffffffff163b116100f8576040517f08c379a00000000000000000000000000000000000000000000000000000000081526004016100ef90610419565b60405180910390fd5b5f73ffffffffffffffffffffffffffffffffffffffff168273ffffffffffffffffffffffffffffffffffffffff1603610166576040517f08c379a000000000000000000000000000000000000000000000000000000000815260040161015d90610481565b60405180910390fd5b5f73ffffffffffffffffffffffffffffffffffffffff168173ffffffffffffffffffffffffffffffffffffffff16036101d4576040517f08c379a00000000000000000000000000000000000000000000000000000000081526004016101cb906104e9565b60405180910390fd5b8273ffffffffffffffffffffffffffffffffffffffff1660808173ffffffffffffffffffffffffffffffffffffffff16815250508173ffffffffffffffffffffffffffffffffffffffff1660a08173ffffffffffffffffffffffffffffffffffffffff1681525050805f5f6101000a81548173ffffffffffffffffffffffffffffffffffffffff021916908373ffffffffffffffffffffffffffffffffffffffff160217905550505050610507565b5f5ffd5b5f73ffffffffffffffffffffffffffffffffffffffff82169050919050565b5f6102b082610287565b9050919050565b6102c0816102a6565b81146102ca575f5ffd5b50565b5f815190506102db816102b7565b92915050565b5f5f5f606084860312156102f8576102f7610283565b5b5f610305868287016102cd565b9350506020610316868287016102cd565b9250506040610327868287016102cd565b9150509250925092565b5f82825260208201905092915050565b7f496e76616c696420696d706c656d656e746174696f6e206164647265737300005f82015250565b5f610375601e83610331565b915061038082610341565b602082019050919050565b5f6020820190508181035f8301526103a281610369565b9050919050565b7f496d706c656d656e746174696f6e206d757374206265206120636f6e747261635f8201527f7400000000000000000000000000000000000000000000000000000000000000602082015250565b5f610403602183610331565b915061040e826103a9565b604082019050919050565b5f6020820190508181035f830152610430816103f7565b9050919050565b7f496e76616c696420656e747279506f696e7420616464726573730000000000005f82015250565b5f61046b601a83610331565b915061047682610437565b602082019050919050565b5f6020820190508181035f8301526104988161045f565b9050919050565b7f496e76616c69642070726f746f636f6c206164647265737300000000000000005f82015250565b5f6104d3601883610331565b91506104de8261049f565b602082019050919050565b5f6020820190508181035f830152610500816104c7565b9050919050565b60805160a0516110eb61053d5f395f81816101b3015261025301525f81816101d90152818161033d015261049101526110eb5ff3fe608060405234801561000f575f5ffd5b5060043610610086575f3560e01c8063b0d691fe11610059578063b0d691fe14610114578063d16352af14610132578063dbfb8cc014610150578063f14ddffc1461018057610086565b806344ab613f1461008a5780635c60da1b146100a85780638ce74426146100c657806399703adf146100e4575b5f5ffd5b6100926101b0565b60405161009f919061070f565b60405180910390f35b6100b06101d7565b6040516100bd919061070f565b60405180910390f35b6100ce6101fb565b6040516100db919061070f565b60405180910390f35b6100fe60048036038101906100f99190610789565b61021f565b60405161010b91906107df565b60405180910390f35b61011c610251565b604051610129919061070f565b60405180910390f35b61013a610275565b604051610147919061070f565b60405180910390f35b61016a60048036038101906101659190610822565b61029c565b604051610177919061070f565b60405180910390f35b61019a60048036038101906101959190610822565b6103bb565b6040516101a7919061070f565b60405180910390f35b5f7f0000000000000000000000000000000000000000000000000000000000000000905090565b7f000000000000000000000000000000000000000000000000000000000000000081565b5f5f9054906101000a900473ffffffffffffffffffffffffffffffffffffffff1681565b5f82826040516020016102339291906108c5565b60405160208183030381529060405280519060200120905092915050565b7f000000000000000000000000000000000000000000000000000000000000000081565b5f5f5f9054906101000a900473ffffffffffffffffffffffffffffffffffffffff16905090565b5f5f63c4d66de860e01b846040516024016102b7919061070f565b604051602081830303815290604052907bffffffffffffffffffffffffffffffffffffffffffffffffffffffff19166020820180517bffffffffffffffffffffffffffffffffffffffffffffffffffffffff838183161783525050505090505f60405180602001610327906106c3565b6020820181038252601f19601f820116604052507f00000000000000000000000000000000000000000000000000000000000000008360405160200161036e929190610960565b60405160208183030381529060405260405160200161038e9291906109c8565b60405160208183030381529060405290506103b184828051906020012030610574565b9250505092915050565b5f5f6103c7848461029c565b90505f8173ffffffffffffffffffffffffffffffffffffffff163b11156103f1578091505061056e565b5f63c4d66de860e01b8560405160240161040b919061070f565b604051602081830303815290604052907bffffffffffffffffffffffffffffffffffffffffffffffffffffffff19166020820180517bffffffffffffffffffffffffffffffffffffffffffffffffffffffff838183161783525050505090505f6040518060200161047b906106c3565b6020820181038252601f19601f820116604052507f0000000000000000000000000000000000000000000000000000000000000000836040516020016104c2929190610960565b6040516020818303038152906040526040516020016104e29291906109c8565b60405160208183030381529060405290505f6104ff5f87846105b4565b90508673ffffffffffffffffffffffffffffffffffffffff168173ffffffffffffffffffffffffffffffffffffffff167ff66707ae2820569ece31cb5ac7cfcdd4d076c3f31ed9e28bf94394bedc0f329d8860405161055e91906107df565b60405180910390a3809450505050505b92915050565b5f604051836040820152846020820152828152600b810160ff815373ffffffffffffffffffffffffffffffffffffffff6055822016925050509392505050565b5f834710156105fc5747846040517fcf4791810000000000000000000000000000000000000000000000000000000081526004016105f39291906109fa565b60405180910390fd5b5f825103610636576040517f4ca249dc00000000000000000000000000000000000000000000000000000000815260040160405180910390fd5b8282516020840186f590503d151981151615610657576040513d5f823e3d81fd5b5f73ffffffffffffffffffffffffffffffffffffffff168173ffffffffffffffffffffffffffffffffffffffff16036106bc576040517fb06ebf3d00000000000000000000000000000000000000000000000000000000815260040160405180910390fd5b9392505050565b61069480610a2283390190565b5f73ffffffffffffffffffffffffffffffffffffffff82169050919050565b5f6106f9826106d0565b9050919050565b610709816106ef565b82525050565b5f6020820190506107225f830184610700565b92915050565b5f5ffd5b610735816106ef565b811461073f575f5ffd5b50565b5f813590506107508161072c565b92915050565b5f819050919050565b61076881610756565b8114610772575f5ffd5b50565b5f813590506107838161075f565b92915050565b5f5f6040838503121561079f5761079e610728565b5b5f6107ac85828601610742565b92505060206107bd85828601610775565b9150509250929050565b5f819050919050565b6107d9816107c7565b82525050565b5f6020820190506107f25f8301846107d0565b92915050565b610801816107c7565b811461080b575f5ffd5b50565b5f8135905061081c816107f8565b92915050565b5f5f6040838503121561083857610837610728565b5b5f61084585828601610742565b92505060206108568582860161080e565b9150509250929050565b5f8160601b9050919050565b5f61087682610860565b9050919050565b5f6108878261086c565b9050919050565b61089f61089a826106ef565b61087d565b82525050565b5f819050919050565b6108bf6108ba82610756565b6108a5565b82525050565b5f6108d0828561088e565b6014820191506108e082846108ae565b6020820191508190509392505050565b5f81519050919050565b5f82825260208201905092915050565b8281835e5f83830152505050565b5f601f19601f8301169050919050565b5f610932826108f0565b61093c81856108fa565b935061094c81856020860161090a565b61095581610918565b840191505092915050565b5f6040820190506109735f830185610700565b81810360208301526109858184610928565b90509392505050565b5f81905092915050565b5f6109a2826108f0565b6109ac818561098e565b93506109bc81856020860161090a565b80840191505092915050565b5f6109d38285610998565b91506109df8284610998565b91508190509392505050565b6109f481610756565b82525050565b5f604082019050610a0d5f8301856109eb565b610a1a60208301846109eb565b939250505056fe6080604052604051610694380380610694833981810160405281019061002591906104d8565b610035828261003c60201b60201c565b50506105b4565b61004b826100c060201b60201c565b8173ffffffffffffffffffffffffffffffffffffffff167fbc7cd75a20ee27fd9adebab32041f755214dbc6bffa90cc0225b39da2e5c2d3b60405160405180910390a25f815111156100ad576100a7828261018f60201b60201c565b506100bc565b6100bb61021560201b60201c565b5b5050565b5f8173ffffffffffffffffffffffffffffffffffffffff163b0361011b57806040517f4c9c8ce30000000000000000000000000000000000000000000000000000000081526004016101129190610541565b60405180910390fd5b8061014d7f360894a13ba1a3210667c828492db98dca3e2076cc3735a920a3ca505d382bbc5f1b61025160201b60201c565b5f015f6101000a81548173ffffffffffffffffffffffffffffffffffffffff021916908373ffffffffffffffffffffffffffffffffffffffff16021790555050565b60605f5f8473ffffffffffffffffffffffffffffffffffffffff16846040516101b8919061059e565b5f60405180830381855af49150503d805f81146101f0576040519150601f19603f3d011682016040523d82523d5f602084013e6101f5565b606091505b509150915061020b85838361025a60201b60201c565b9250505092915050565b5f34111561024f576040517fb398979f00000000000000000000000000000000000000000000000000000000815260040160405180910390fd5b565b5f819050919050565b60608261027557610270826102ed60201b60201c565b6102e5565b5f825114801561029b57505f8473ffffffffffffffffffffffffffffffffffffffff163b145b156102dd57836040517f9996b3150000000000000000000000000000000000000000000000000000000081526004016102d49190610541565b60405180910390fd5b8190506102e6565b5b9392505050565b5f815111156102ff5780518082602001fd5b6040517fd6bda27500000000000000000000000000000000000000000000000000000000815260040160405180910390fd5b5f604051905090565b5f5ffd5b5f5ffd5b5f73ffffffffffffffffffffffffffffffffffffffff82169050919050565b5f61036b82610342565b9050919050565b61037b81610361565b8114610385575f5ffd5b50565b5f8151905061039681610372565b92915050565b5f5ffd5b5f5ffd5b5f601f19601f8301169050919050565b7f4e487b71000000000000000000000000000000000000000000000000000000005f52604160045260245ffd5b6103ea826103a4565b810181811067ffffffffffffffff82111715610409576104086103b4565b5b80604052505050565b5f61041b610331565b905061042782826103e1565b919050565b5f67ffffffffffffffff821115610446576104456103b4565b5b61044f826103a4565b9050602081019050919050565b8281835e5f83830152505050565b5f61047c6104778461042c565b610412565b905082815260208101848484011115610498576104976103a0565b5b6104a384828561045c565b509392505050565b5f82601f8301126104bf576104be61039c565b5b81516104cf84826020860161046a565b91505092915050565b5f5f604083850312156104ee576104ed61033a565b5b5f6104fb85828601610388565b925050602083015167ffffffffffffffff81111561051c5761051b61033e565b5b610528858286016104ab565b9150509250929050565b61053b81610361565b82525050565b5f6020820190506105545f830184610532565b92915050565b5f81519050919050565b5f81905092915050565b5f6105788261055a565b6105828185610564565b935061059281856020860161045c565b80840191505092915050565b5f6105a9828461056e565b915081905092915050565b60d4806105c05f395ff3fe6080604052600a600c565b005b60186014601a565b6026565b565b5f60216044565b905090565b365f5f375f5f365f845af43d5f5f3e805f81146040573d5ff35b3d5ffd5b5f606e7f360894a13ba1a3210667c828492db98dca3e2076cc3735a920a3ca505d382bbc5f1b6095565b5f015f9054906101000a900473ffffffffffffffffffffffffffffffffffffffff16905090565b5f81905091905056fea264697066735822122099c2e8a8548d0325eaf5556a1b4109a9d2a68d4d0f4c385c939d94339a50052464736f6c634300081c0033a2646970667358221220cce00315856c1ebf6c3c0bad87379a74a47d1a6932f7b4049e0086026db2c9d464736f6c634300081c0033",
  "linkReferences": {},
  "deployedLinkReferences": {},
  "immutableReferences": {
    "929": [
      {
        "length": 32,
        "start": 473
      },
      {
        "length": 32,
        "start": 829
      },
      {
        "length": 32,
        "start": 1169
      }
    ],
    "931": [
      {
        "length": 32,
        "start": 435
      },
      {
        "length": 32,
        "start": 595
      }
    ]
  },
  "inputSourceName": "contracts/factory/BondAccountFactory.sol",
  "buildInfoId": "02d258992354856323e3d63413a4b13ec85fee82"
}